:020000040000FA
:0400000080313128F2
:100008007E1480312000101C0A280B282F287A081B
:100018007B04031D1028112819288C160130FA00BA
:100028000030FB00950196012D288C12FA01FB0186
:100038001508F000F10170082100EC007108ED00CE
:1000480020001608F000F10170082100EA0071088C
:10005800EB00200010107E10090080313328FA01CF
:10006800FB01E63084000030850008308D31BB2567
:10007800803120308400013085003A308D31BB2535
:1000880080317E1020008431D82C2000310880393E
:10009800B6003608BB003135B6003608C100B01FBF
:1000A8005628572858284114410803195C285D2808
:1000B8006C28410A031D612862286A280030B100B3
:1000C8000030B0000030AF000030AE00B017742828
:1000D8000030B1000030B0000030AF000030AE009A
:1000E80035088039B6003608BB063535B6003608FF
:1000F800BC00B41F8028812882283C143C080319BE
:100108008628872896283C0A031D8B288C28942843
:100118000030B5000030B4000030B3000030B20049
:10012800B4179E280030B5000030B4000030B3008A
:100138000030B2003C080319A228A328A8284108C7
:10014800031DA728A828B1280030B1000030B0004E
:100158000030AF000030AE009F2A2E08B6003608E7
:10016800F20034088E310326803173082000C7005E
:100178007208C6004608B600B701B801B9013908C7
:10018800C0003808BF003708BE003608BD00470861
:10019800B600B701B801B9013908C5003808C4006C
:1001A8003708C3003608C2002F08B6003608F20028
:1001B80033088E310326803173082000C700720887
:1001C800C6004608B600B701B801B9013608BD0730
:1001D8003708BE3D3808BF3D3908C03D4708B6005E
:1001E800B701B801B9013608C2073708C33D380856
:1001F800C43D3908C53D3008B6003608F20032085B
:100208008E310326803173082000C7007208C600AB
:100218004608B600B701B801B9013608BD07370866
:10022800BE3D3808BF3D3908C03D4708B600B70194
:10023800B801B9013608C2073708C33D3808C43DBC
:100248003908C53D0830BD35BE0DBF0DC00D890B41
:1002580027292F08B6003608F20032088E31032607
:10026800803173082000C7007208C6004608BD0721
:100278004708BE3D0030BF3DC03D2E08B6003608D9
:10028800F20033088E310326803173082000C7003E
:100298007208C6004608BD074708BE3D0030BF3D8E
:1002A800C03D0830BD35BE0DBF0DC00D890B5629A8
:1002B8002E08B6003608F20032088E310326803147
:1002C80073082000C7007208C6004608BD07470823
:1002D800BE3D0030BF3DC03D2F08B6003608F200D5
:1002E80034088E310326803173082000C700720855
:1002F800C6004608C2074708C33D0030C43DC53D97
:100308003008B6003608F20033088E3103268031F3
:1003180073082000C7007208C6004608C2074708CD
:10032800C33D0030C43DC53D3008B6003608F20074
:1003380034088E310326803173082000C700720804
:10034800C6004608B6004708B700B801B90108302A
:10035800B635B70DB80DB90D890BAC293608C207EB
:100368003708C33D3808C43D3908C53D3D08B600C7
:100378003E08B7003F08B8004008B9001830B93641
:10038800B80CB70CB60C890BC3293608C207370856
:10039800C33D3808C43D3908C53D0830BD35BE0DDC
:1003A800BF0DC00D890BD22941083C07B600B70123
:1003B800B70D3608823EC600FF30373DC700FB291F
:1003C8000130C235C30DC40DC50D890BE529C01F09
:1003D800EE29EF29F02942140130BD35BE0DBF0DBD
:1003E800C00D890BF129FF30C607FF30C73DC41F78
:1003F800FE29FF29E429BC01C01F032A042A202A58
:10040800FF303D05B600FF303E05B700FF303F0521
:10041800B8007F304005B90039083804370436047D
:100428000319172A182A1B2ABC01BC0A202A421CB5
:100438001E2A1F2A202A182A3C080319242A252A9A
:100448004D2A0130C2070030C33D0030C43D0030A2
:10045800C53D451C302A312A4D2A4208B6004308BA
:10046800B7004408B8004508B9000130BA00B937E8
:10047800B80CB70CB60CBA0B3B2A3908C5003808BB
:10048800C4003708C3003608C2000130C607003070
:10049800C73D4708803AB60080303602031D562A09
:1004A800FF304602031C592A5A2A642A7F3020004A
:1004B800C5008030C4000030C3000030C200932A59
:1004C80020004708803AB60080303602031D6E2AA5
:1004D800013046020318712A722A7D2A0030200052
:1004E800C5000030C4000030C3000030C200BB01AA
:1004F800932A20004608B6003608C100FF30C2051E
:10050800FF30C3057F30C4050030C505411C8D2A66
:100518008E2A8F2AC4174136B6003608C5003B0814
:10052800B6003608C5044508B1004408B0004308C1
:10053800AF004208AE00080020004B088039D00008
:100548005008D8004B35D0005008DA00CA1FAD2A31
:10055800AE2AAF2A5A145A080319B32AB42AC42A4D
:100568005A0A031DB82AB92AC12A0030CB00003024
:10057800CA000030C9000030C800CA17CB01CC2A15
:100588000030CB000030CA000030C9000030C8007D
:100598004F088039D0005008D90059085806031967
:1005A800D62AD72AD82A58174F35D0005008D9004C
:1005B800CE1FDF2AE02AE12A591459080319E52A2F
:1005C800E62AF62A590A031DEA2AEB2AF32A0030FA
:1005D800CF000030CE000030CD000030CC00CE1768
:1005E800CF01FE2A0030CF000030CE000030CD0011
:1005F8000030CC005A0859020318032B042B482B4F
:10060800581F072B082B0C2B8030D0005008D80619
:100618005A08D0005008DB005908D0005008DA000A
:100628005B08D0005008D9004808D0005008DB000B
:100638004C08D0005008C8005B08D0005008CC0017
:100648004908D0005008DB004D08D0005008C90008
:100658005B08D0005008CD004A08D0005008DB00E5
:100668004E08D0005008CA005B08D0005008CE00E1
:100678004B08D0005008DB004F08D0005008CB00D2
:100688005B08D0005008CF00DB015908D000D10129
:100698005108D3005A085002D200031CD303530850
:1006A800803AD40080305402031D5C2B1A30520269
:1006B800031C5F2B602B982B20004B084A0449042D
:1006C8004804031D682B6A2B01306B2B0030D000C7
:1006D8005008DB000030CB000030CA000030C900F1
:1006E8000030C8005908D0005008DA009F2B5B1C66
:1006F8007E2B7F2B852B5B360138D0005008DB0022
:10070800872B0310DB0C481C8A2B8B2B8C2BDB17BD
:100718000130D000CB37CA0CC90CC80CD00B8E2BBB
:100728000130D0005008DA07200059085A02031C8B
:100738009E2B9F2B7B2B581BA22BA32BDB2B5A0802
:10074800031DA72BA82BB12B0030CB000030CA000B
:100758000030C9000030C800D72C4C08C8074D0825
:10076800C93D4E08CA3D4F08CB3D4B1CBC2BBD2B89
:10077800672C5B1CC02BC12BC72B5B360138D00004
:100788005008DB00C92B0310DB0C481CCC2BCD2BED
:10079800CE2BDB170130D000CB37CA0CC90CC80CE4
:1007A800D00BD02B0130D0005008DA07672C4B084B
:1007B800803AD0004F08803A5002031DED2B4E08B6
:1007C8004A02031DED2B4D084902031DED2B4C0871
:1007D80048020318F02BF12B292CFF30D000FF30F2
:1007E800D100FF30D200FF30D30048084C02D400BB
:1007F80049084D3BD5004A084E3BD6004B084F3BB5
:10080800D7005408D0075508D13D5608D23D57089F
:10081800D33D5308CB005208CA005108C9005008FC
:10082800C8008030D0005008D806DB09DB0A5B0816
:10083800031D1F2C202C312C0130C8070030C93D66
:100848000030CA3D0030CB3D312C4C08C8024D0861
:10085800C93B4E08CA3B4F08CB3B4B084A044904E6
:100868004804031D382C392C632C5B08031D3D2CD0
:100878003E2C632C0030CB000030CA000030C90089
:100888000030C800D72C0130C835C90DCA0DCB0DB2
:10089800890B482CDB1F512C522C532C48145B1C01
:1008A800562C572C5A2C0314DB0D5C2C0310DB0D33
:1008B8005A080319602C612C632C0130DA02CA1F14
:1008C800662C672C472CD901DB1F6B2C6C2C7A2CDF
:1008D8005B087F390319712C722C752CD901D90A40
:1008E8007A2C481C782C792C7A2C722C59080319EC
:1008F8007E2C7F2CAC2C0130C8070030C93D00305D
:10090800CA3D0030CB3D4B1C8A2C8B2CAC2C4808A4
:10091800D0004908D1004A08D2004B08D300013062
:10092800D400D337D20CD10CD00CD40B952C53084F
:10093800CB005208CA005108C9005008C8005A0A1A
:100948000319A72CA82CAC2C0130D0005008DA07CA
:100958005A0A0319B02CB12CB62C5A08031DB52C11
:10096800B62CC42C0030CB000030CA000030C900BF
:100978000030C8005A08031DC22CC32CC42CD8014F
:100988005A1CC72CC82CCA2CCA17CE2C7F30D000B2
:100998005008CA055A36D0005008CB00D81FD52CAD
:1009A800D62CD72CCB17080021008E0123008E01EE
:1009B800043021008C0023008C01C03021008D0000
:1009C800C03023008D0020008D018D31C925843170
:1009D8008D31D62584318D31C125843104302000F4
:1009E800EA00CF30E9000130890BF82CE90BF82C2C
:1009F800EA0BF82C00322100E201E301A030860066
:100A0800003087003A302000E90000301E00E90B72
:100A18000A2D2100E401E50121006A086B04031D89
:100A2800162D172D372D6D082000EA0021006C08BF
:100A38002000E900E935EA0DE935EA0D6908F20018
:100A48006A08F300FD30F4000630F5008E31BF2649
:100A5800843121006435A03E860087017208C03FBA
:100A68007308C13F3E2D6435A03E860087010030E3
:100A7800C03FC13F6435A03E86008701403F20004B
:100A8800E900413FEA0069082100E20720006A08FE
:100A98002100E33D20000D16A3302000E900553069
:100AA800890B542DE90B542D20000D12A330200082
:100AB800E9005530890B5E2DE90B5E2D01302100D0
:100AC800E4070030E53D6508803A2000E900803001
:100AD8006902031D722D1F3021006402031C752D4D
:100AE800762D102D1E30F2000030F300210063082F
:100AF800F5006208F4008E31BF26843173082100A6
:100B0800E3007208E2000E30F2000030F3008D318D
:100B1800E525843172082000A0007308A100890D22
:100B2800893B8909A200A300013087314F2784310E
:100B3800200023082100E900200022082100E80005
:100B4800200021082100E700200020082100E600FD
:100B580069082000DF00210068082000DE0021006D
:100B680067082000DD00210066082000DC008F31C6
:100B78008B27843120005D082100DB0020005C0801
:100B88002100DA005B082000E60021005A08200056
:100B9800E5008E3173268431200066082100DF00CD
:100BA800200065082100DE000F30F2000030F3005D
:100BB8008D31E525843172082000A0007308A1005A
:100BC800890D893B8909A200A300013087314F278D
:100BD8008431200023082100E90020002208210098
:100BE800E800200021082100E7002000200821005B
:100BF800E60069082000DF00210068082000DE0008
:100C0800210067082000DD00210066082000DC00C4
:100C18008F318B27843120005D082100DD00200002
:100C28005C082100DC005D082000E60021005C086B
:100C38002000E5008E312726843120006608210037
:100C4800E100200065082100E00020008D16210049
:100C58006308F5006208F4005F08F7005E08F60014
:100C68006108F9006008F8008631402684312000C8
:100C78008D12FF2C803131280130F2000030F30052
:100C88008F311F278631A3302000A0005530890BF3
:100C98004B2EA00B4B2EFF3020008E00A3302000DF
:100CA800A0005530890B562EA00B562E7708200031
:100CB800A1007608A0000430A200210DA10CA00C10
:100CC800A20B612E0F302005A30000302105A400DF
:100CD8002408F3002308F2008F311F278631A33040
:100CE8002000A0005530890B772EA00B772EFF30FF
:100CF80020008E00A3302000A0005530890B822EE2
:100D0800A00B822E0F3076052000A5000030770555
:100D1800A6002608F3002508F2008F311F27863128
:100D2800A3302000A0005530890B982EA00B982ED8
:100D3800FF3020008E00A3302000A0005530890B22
:100D4800A32EA00BA32E75082000A1007408A000F4
:100D58000430A200210DA10CA00CA20BAE2E0F3066
:100D68002005A30000302105A4002408F30023086F
:100D7800F2008F311F278631A3302000A0005530A4
:100D8800890BC42EA00BC42EFF3020008E00A33088
:100D98002000A0005530890BCF2EA00BCF2E0F308E
:100DA80074052000A50000307505A6002608F3008C
:100DB8002508F2008F311F278631A3302000A000BC
:100DC8005530890BE52EA00BE52EFF3020008E0054
:100DD800A3302000A0005530890BF02EA00BF02E78
:100DE80079082000A1007808A0000430A200210D95
:100DF800A10CA00CA20BFB2E0F302005A300003085
:100E08002105A4002408F3002308F2008F311F27CE
:100E18008631A3302000A0005530890B112FA00B7C
:100E2800112FFF3020008E00A3302000A000553085
:100E3800890B1C2FA00B1C2F0F3078052000A50054
:100E480000307905A6002608F3002508F2008F3146
:100E58001F278631A3302000A0005530890B322F80
:100E6800A00B322FFF3020008E00A3302000A000FE
:100E78005530890B3D2FA00B3D2F0030F200F300B9
:100E88008F311F278631FA300032890B482FFF3007
:100E980020008E0008002000A80028080319552FFC
:100EA800562F6A2FA31F592F5A2F6A2F2009AA00DD
:100EB8002109AB002209AC002309AD00AA0A0319D5
:100EC800AB0A0319AC0A0319AD0A722F2308AD0047
:100ED8002208AC002108AB002008AA00230822043D
:100EE80021042004031D792F7A2F832F0030A300BB
:100EF8000030A2000030A1000030A000FB2F963087
:100F0800A4002408A900932F0130A4002408A907ED
:100F18000130AD36AC0CAB0CAA0C890B8D2FFE3012
:100F28002D05031D982F992F882FAD2F0130A40070
:100F38002408A9070130AA070030AB3D0030AC3DBA
:100F48000030AD3D0130AD36AC0CAB0CAA0C890BB2
:100F5800A72FFF302D05031DB22FB32F9A2FBD2FBA
:100F68000130A9020130AA35AB0DAC0DAD0D890BCE
:100F7800B72FAC1BC02FC12FC72F0230290203186F
:100F8800C62FC72FB42F2918CA2FCB2FD32FFF3026
:100F9800AA05FF30AB057F30AC05FF30AD05031067
:100FA800A90C2908A400A501A601A7011830A43599
:100FB800A50DA60DA70D890BDB2F2408AA0425086B
:100FC800AB042608AC042708AD0428080319ED2F44
:100FD800EE2FF32FA31FF12FF22FF32FAD172D08AC
:100FE800A3002C08A2002B08A1002A08A0000800D2
:040FF8001E3400346F
:101B7600640080010131890BBC2D0034F030210056
:101B86009E0001309D009C019B0108000B170B1065
:101B9600210010143C001008E039023890002000A3
:101BA60010108B17080020009717171618081F39F2
:101BB6004038980018121808F0390A38980095012C
:101BC600960108000130F400740821009D05720892
:101BD600F4000130F435FF3E031DED2D7435F5009C
:101BE60075089D049D149D18F92DFA2DF62D1C08D7
:101BF600F7001B08F6007708F3007608F2000800E5
:101C06002000A400A001A1017208F400F5017408E7
:101C1600A2007508A300241C112E122E162E2208CF
:101C2600A0072308A13D0130A235A30D890B172E6D
:101C36000310A40C2408031D212E222E0E2E21088B
:101C4600F3002008F200080020006508A0006608DE
:101C5600A100890D893B8909A200A30001308731C3
:101C66004F278E3120002308B5002208B400210832
:101C7600B3002008B2003E30B1001930B0009930F0
:101C8600AF009A30AE00803149208E3120003108F5
:101C9600CF003008CE002F08CD002E08CC004230F1
:101CA600CB00C030CA000030C9000030C800823105
:101CB600A0228E3120004B08DF004A08DE004908CA
:101CC600DD004808DC008F318B278E3120005D084F
:101CD600E8005C08E7006808E6006708E500080019
:101CE60020006508A0006608A100890D893B8909C6
:101CF600A200A300013087314F278E312000230830
:101D0600B5002208B4002108B3002008B2003E3016
:101D1600B1008F30B0005C30AF002930AE008031AA
:101D260049208E3120003108CF003008CE002F0820
:101D3600CD002E08CC00C230CB007830CA0000306F
:101D4600C9000030C8008231A0228E3120004B0825
:101D5600DF004A08DE004908DD004808DC008F3154
:101D66008B278E3120005D08E8005C08E7006808D4
:101D7600E6006708E50008002000A101F31FC42E55
:101D8600C52ECC2EF209F309F20A0319F30AA101B2
:101D9600A10AF51FCF2ED02ED92EF409F509F40A83
:101DA6000319F50A0130F6007608A106A201A3017F
:101DB600720873040319E02EE12E102FA001A00A69
:101DC600ED2E0130F235F30D890BE52E0130F600CC
:101DD6007608A007F31FF02EF12EE42E0130A2356F
:101DE600A30D890BF22E73087502031DFC2E7208D3
:101DF6007402031CFF2E002F052F7208F4027308CD
:101E0600F53B22140130F336F20C890B062F013014
:101E1600A002031D0F2F102FF12E21080319142FD6
:101E2600152F1A2FA209A309A20A0319A30A230828
:101E3600F3002208F2000800FF3020008E00532F26
:101E46000E128E128A2F8E130E118A2F8E138E105B
:101E56008A2F8E130E108A2F0E130E118A2F0E1331
:101E66008E108A2F0E130E108A2F8E110E118A2FA6
:101E76008E118E108A2F8E110E108A2F0E128E1032
:101E86008A2F0E120E118A2F0E120E108A2F8E1303
:101E96008E128A2F0E138E128A2F8E118E128A2F71
:101EA6007308003A0319582F8A2F7208003A03194B
:101EB600232F013A0319262F033A0319292F013A32
:101EC60003192C2F073A03192F2F013A0319322F22
:101ED600033A0319352F013A0319382F0F3A03191C
:101EE6003B2F013A03193E2F033A0319412F013ABA
:101EF6000319442F073A0319472F013A03194A2FAA
:101F0600033A03194D2F013A0319502F8A2F08005F
:101F1600031020005E0D5F0DE0006008F9007908EF
:101F2600031D962F972FA02F0030DF000030DE0014
:101F36000030DD000030DC00FF2F5C08E0005D08AB
:101F4600E1005E08E2005F08E3001F30E336E20CC2
:101F5600E10CE00C890BA92F6008E4006408F80086
:101F6600DE17FF30DC05FF30DD05FF30DE05003013
:101F7600DF059630F902F91FC12FC22FDA2F790833
:101F8600803A973E0318C82FC92FCA2F972F0130C2
:101F9600DF36DE0CDD0CDC0C890BCB2F0130E000CC
:101FA6006008F907031DD82FD92FCA2FEF2F20302D
:101FB6007902031CDF2FE02FEA2F972F0130DC3543
:101FC600DD0DDE0DDF0D890BE22F0130F9027908F8
:101FD600031DEE2FEF2FE12F78080319F32FF42FAF
:101FE600FF2FDC09DD09DE09DF09DC0A0319DD0A3A
:0A1FF6000319DE0A0319DF0A0800D0
:020000040001F9
:06000E00ECDFF3FFFFDF51
:00000001FF
